:100000000C942A000C9447000C9447000C94470071
:100010000C9447000C9447000C9447000C94FF028A
:100020000C9447000C9447000C9447000C94470034
:100030000C9447000C9447000C9447000C94470024
:100040000C9447000C9447000C9447000C94470014
:100050000C94470011241FBECFE5D8E0DEBFCDBF12
:1000600010E0A0E6B0E0EAEBF8E002C005900D92E7
:10007000A237B107D9F720E0A2E7B0E001C01D9296
:10008000A63AB207E1F70E9458020C945B040C9464
:100090000000442319F04130C9F10895813091F0F6
:1000A00028F08230D9F0833029F108952AB381E015
:1000B00090E002C0880F991F6A95E2F7809582232D
:1000C0008ABB089527B381E090E002C0880F991F92
:1000D0006A95E2F78095822387BB089524B381E077
:1000E00090E002C0880F991F6A95E2F780958223FD
:1000F00084BB089521B381E090E002C0880F991F6E
:100100006A95E2F78095822381BB0895813089F05A
:1001100028F08230C9F0833011F108952AB381E0CC
:1001200090E002C0880F991F6A95E2F7822B8ABB84
:10013000089527B381E090E002C0880F991F6A9567
:10014000E2F7822B87BB089524B381E090E002C0E0
:10015000880F991F6A95E2F7822B84BB089521B31B
:1001600081E090E002C0880F991F6A95E2F7822B28
:1001700081BB0895442319F04130C9F108958130BD
:1001800091F028F08230D9F0833029F108952BB313
:1001900081E090E002C0880F991F6A95E2F7809590
:1001A00082238BBB089528B381E090E002C0880FC2
:1001B000991F6A95E2F78095822388BB089525B33D
:1001C00081E090E002C0880F991F6A95E2F7809560
:1001D000822385BB089522B381E090E002C0880F9E
:1001E000991F6A95E2F78095822382BB089581303A
:1001F00089F028F08230C9F0833011F108952BB3D3
:1002000081E090E002C0880F991F6A95E2F7822B87
:100210008BBB089528B381E090E002C0880F991F3E
:100220006A95E2F7822B88BB089525B381E090E0C0
:1002300002C0880F991F6A95E2F7822B85BB08954B
:1002400022B381E090E002C0880F991F6A95E2F71F
:10025000822B82BB0895CF93C82F40E061E081E0FC
:100260000E94BA0040E062E081E00E94BA0040E0F3
:1002700063E081E00E94BA008BB39C2F907F8F7067
:10028000892B8BBB41E063E081E00E94BA008FE9DB
:100290009FE00197F1F700C0000040E063E081E0DB
:1002A0000E94BA002BB330E1C39FC0011124922FEA
:1002B0009F70892B8BBB41E063E081E00E94BA0014
:1002C0008FE99FE00197F1F700C0000040E063E094
:1002D00081E00E94BA008FE39FE10197F1F700C02F
:1002E0000000CF91089541E061E081E00E94490063
:1002F00041E062E081E00E94490041E063E081E08A
:100300000E94490041E064E080E00E94490041E031
:1003100065E080E00E94490041E066E080E00E94E4
:10032000490041E067E080E00E9449002FEF83ED43
:1003300090E3215080409040E1F700C0000082E04F
:100340000E942B0183E30E942B0182E30E942B0178
:1003500088E20E942B018CE00E942B0181E00E9428
:100360002B0186E00E942B010895CF93C82F41E016
:1003700061E081E00E94BA0040E062E081E00E941A
:10038000BA0040E063E081E00E94BA008BB39C2F8A
:10039000907F8F70892B8BBB41E063E081E00E94EE
:1003A000BA008FE99FE00197F1F700C0000040E03C
:1003B00063E081E00E94BA002BB330E1C39FC0012B
:1003C0001124922F9F70892B8BBB41E063E081E069
:1003D0000E94BA008FE99FE00197F1F700C000008A
:1003E00040E063E081E00E94BA008FE39FE1019763
:1003F000F1F700C00000CF910895CF93DF93EC0197
:100400008881882331F021960E94B501899181115C
:10041000FBCFDF91CF91089581E00E942B010895D9
:10042000CF93DF939C01FB01DC011196CD91DC9110
:100430001297D383C2838C819D81958384838C8121
:100440009D81DC0113967C936E9312977D836C8360
:1004500031872087F90180818F5F8083DF91CF9181
:100460000895CF93DF93FC01A085B185C281D3812C
:10047000848195819D838C83C481D5818281938180
:100480009B838A8311968D919C911297E817F907A7
:1004900031F48481958112969C938E9311971186E5
:1004A00010868C9181508C938C91DF91CF9108951F
:1004B0000E9473010E940C020E944F040E940203DA
:1004C0000E94570490E08133910551F481E00E942D
:1004D00009030E940C0280E690E00E94FD01F0CF2B
:1004E0008233910551F482E00E9409030E940C02BC
:1004F00080E690E00E94FD01E3CF8333910551F443
:1005000083E00E9409030E940C0280E690E00E94B2
:10051000FD01D6CF8433910551F484E00E94090394
:100520000E940C0280E690E00E94FD01C9CFC097B6
:1005300039F680E00E9409030E940C0280E690E0F8
:100540000E94FD01BDCF0F920FB6F8940F921F923B
:1005500011242F923F924F925F926F927F928F92CF
:100560009F92AF92BF92CF92DF92EF92FF920F9342
:100570001F932F933F934F935F936F937F938F932B
:100580009F93AF93BF93CF93DF93EF93FF93A0918C
:10059000A400B091A5000DB60D920EB60D920E946A
:1005A0002A0381110E94E903A091A400B091A50043
:1005B000CD91CDBFDD91DEBFFF91EF91DF91CF9166
:1005C000BF91AF919F918F917F916F915F914F916B
:1005D0003F912F911F910F91FF90EF90DF90CF905F
:1005E000BF90AF909F908F907F906F905F904F9053
:1005F0003F902F901F900F900FBE0F9008950E9474
:10060000A3021895BC9ABD9ABE98BF9A83E58DB98E
:100610000895C4988FB9779BFECF0895E0917E002E
:10062000F0917F008081811107C08FEF9FEF909341
:100630007400809373000895E0917E00F0917F0034
:100640000580F681E02D80819181909374008093E4
:1006500073000895CF92DF92EF92FF920F931F9352
:10066000CF93DF938091720081119FC0E0907A0058
:10067000F0907B008FEFE81AF80AF0927B00E0928E
:100680007A00E114F104B9F480917E0090917F002A
:1006900020917C0030917D0030937F0020937E007C
:1006A00090937D0080937C00809175008F5F809394
:1006B00075000E940E038091730090917400E816FB
:1006C000F90610F4D12C53C0D12CCC24C394E09162
:1006D0007E00F0917F008081811107C08FEF9FEF36
:1006E000909374008093730042C0E0917E00F0917B
:1006F0007F000580F681E02DC681D7818A819B81AC
:10070000E816F90628F490937400809373002FC0C4
:100710008E010E5F1F4FC8010E9431028C899D8996
:10072000892B21F0CE010C960E9431028E89909186
:100730007900981710F48093790090E09C01220FC3
:10074000331F220F331F220F331F820F931FB80155
:1007500080589F4F0E941002E091A400F091A500E4
:100760009E898689981708F4B2CFDC2CB0CFE0912F
:10077000A400F091A500868990E0FC01EE0FFF1F18
:10078000EE0FFF1FEE0FFF1F8E0F9F1FFC01E058A3
:10079000FF4F8081823010F0DD24D3948091760069
:1007A000882369F0DD24D3940AC08091770090916A
:1007B000780001969093780080937700D12C8D2D4E
:1007C000DF91CF911F910F91FF90EF90DF90CF902D
:1007D000089580917200882321F081E08093760053
:1007E00008951092760020917900822F90E0FC010C
:1007F000EE0FFF1FEE0FFF1FEE0FFF1FE80FF91F99
:10080000E058FF4F3081311111C02150822F90E00C
:10081000FC01EE0FFF1FEE0FFF1FEE0FFF1FE80F93
:10082000F91FE058FF4F3081332379F3AC01440FB7
:10083000551F440F551F440F551F480F591FDA010C
:10084000A058BF4F1196ED91FC9112970280F38151
:10085000E02D1296FC93EE9311974D575F4FE417DE
:10086000F50729F442815381FD0152834183FC0144
:10087000EE0FFF1FEE0FFF1FEE0FFF1F8E0F9F1FCC
:10088000FC01E058FF4F0180F281E02D86819781C5
:100890009093A5008093A40020937900089588E1A7
:1008A0008AB986E880BD87E689B910BC08955F9B48
:0A08B000FECF8CB10895F894FFCF3D
:1008BA0044415441205452414E534D4954544544A5
:0208CA0000002C
:00000001FF
