S0250000496E746572666163696E675F6D6F64756C65735F5F414D49545F4632302E737265634D
S11300000C942A000C9447000C9447000C9447006D
S11300100C9447000C9447000C9447000C94470040
S11300200C9447000C9447000C9447000C94470030
S11300300C9447000C9447000C9447000C94470020
S11300400C9447000C9447000C9447000C94470010
S11300500C94470011241FBECFE5D8E0DEBFCDBF0E
S113006010E0A0E6B0E0EAE7F5E002C005900D92EA
S1130070A23AB107D9F720E0A2EAB0E001C01D928C
S1130080A23AB207E1F70E940C020C94BB020C9452
S11300900000CF93C82F40E061E081E00E949B0103
S11300A040E062E081E00E949B0140E063E081E087
S11300B00E949B018BB39C2F907F8F70892B8BBBED
S11300C041E063E081E00E949B018FE99FE001979A
S11300D0F1F700C0000040E063E081E00E949B0172
S11300E020E1C29FC00111249BB39F70892B8BBB5D
S11300F041E063E081E00E949B018FE99FE001976A
S1130100F1F700C0000040E063E081E00E949B0141
S11301108FE39FE10197F1F700C00000CF910895AC
S113012041E061E081E00E942A0141E062E081E077
S11301300E942A0141E063E081E00E942A0141E03B
S113014064E080E00E942A0141E065E080E00E94D2
S11301502A0141E066E080E00E942A0141E067E074
S113016080E00E942A012FEF83ED90E3215080402C
S11301709040E1F700C0000082E00E94490083E360
S11301800E94490082E30E94490088E20E944900DB
S11301908CE00E94490081E00E94490086E00E94B0
S11301A049000895CF93C82F41E061E081E00E94A7
S11301B09B0140E062E081E00E949B0140E063E03B
S11301C081E00E949B018BB39C2F907F8F70892BC1
S11301D08BBB41E063E081E00E949B018FE99FE0DB
S11301E00197F1F700C0000040E063E081E00E9465
S11301F09B0120E1C29FC00111249BB39F70892BF6
S11302008BBB41E063E081E00E949B018FE99FE0AA
S11302100197F1F700C0000040E063E081E00E9434
S11302209B018FE39FE10197F1F700C00000CF919C
S11302300895CF93DF93EC0103C00E94D20021966E
S113024088818111FACFDF91CF91089581E00E94D6
S113025049000895442319F04130C9F108958130CB
S113026091F028F08230D9F0833029F108952AB32F
S113027081E090E002C0880F991F6A95E2F78095AB
S113028082238ABB089527B381E090E002C0880FDF
S1130290991F6A95E2F78095822387BB089524B35A
S11302A081E090E002C0880F991F6A95E2F780957B
S11302B0822384BB089521B381E090E002C0880FBB
S11302C0991F6A95E2F78095822381BB0895813056
S11302D089F028F08230C9F0833011F108952AB3EF
S11302E081E090E002C0880F991F6A95E2F7822BA3
S11302F08ABB089527B381E090E002C0880F991F5C
S11303006A95E2F7822B87BB089524B381E090E0DD
S113031002C0880F991F6A95E2F7822B84BB089567
S113032021B381E090E002C0880F991F6A95E2F73B
S1130330822B81BB0895442319F04130C9F10895FB
S1130340813091F028F08230D9F0833029F108957A
S11303502BB381E090E002C0880F991F6A95E2F701
S1130360809582238BBB089528B381E090E002C07E
S1130370880F991F6A95E2F78095822388BB0895B8
S113038025B381E090E002C0880F991F6A95E2F7D7
S11303908095822385BB089522B381E090E002C05A
S11303A0880F991F6A95E2F78095822382BB08958E
S11303B0813089F028F08230C9F0833011F108953A
S11303C02BB381E090E002C0880F991F6A95E2F791
S11303D0822B8BBB089528B381E090E002C0880F84
S11303E0991F6A95E2F7822B88BB089525B381E0B3
S11303F090E002C0880F991F6A95E2F7822B85BBB3
S1130400089522B381E090E002C0880F991F6A9595
S1130410E2F7822B82BB08950E9490000E9426017D
S11304200E94A8020E9472020E9484020E94960204
S11304300E94B702C82F0E942601C230C1F028F4DE
S1130440CC23E1F1C13031F046C0C330E9F0C4300F
S113045041F141C00E9478020E9490020E94A202CF
S11304600E94260180E690E00E941901E1CF0E94DB
S11304707E020E948A020E94A2020E94260189E64C
S113048090E00E941901D4CF0E947E020E94900243
S11304900E949C020E94260182E790E00E941901BA
S11304A0C7CF0E9478020E948A020E949C020E9486
S11304B026018BE790E00E941901BACF0E947E02C8
S11304C00E9490020E94A2020E94260188E890E005
S11304D00E941901ADCF0E94260186E990E00E9496
S11304E01901A6CF41E062E082E00E942A0108954A
S11304F041E062E082E00E949B01089540E062E0F6
S113050082E00E949B01089541E067E082E00E943E
S11305102A01089541E067E082E00E949B0108956A
S113052040E067E082E00E949B01089541E063E0BF
S113053083E00E942A01089541E063E083E00E9481
S11305409B01089540E063E083E00E949B010895CD
S113055087B38F7E87BB87B38F7D87BB87B3806468
S113056087BB87B38F7787BB83E48DB90895779B67
S10D0570FECF8FB10895F894FFCF79
S113057A4C4544303A204F4E004C4544313A204FC2
S113058A4E004C4544323A204F4E00414C4C204CCC
S113059A4544733A204F4E00414C4C204C45447319
S11305AA3A204F46460057524F4E4720494E50551F
S10505BA5400E7
S9030000FC
